:100000000C9466000C948E000C948E000C948E0060
:100010000C948E000C948E000C948E000C948E0028
:100020000C948E000C948E000C948E000C944C0A50
:100030000C948E000C94C9070C948E000C948E00C6
:100040000C94210D0C948E000C947F0F0C94C60F11
:100050000C948E000C948E000C948E000C948E00E8
:100060000C948E000C948E000000000024002700E9
:100070002A0000000000250028002B0000000000DE
:1000800023002600290004040404040404040202DA
:100090000202020203030303030301020408102007
:1000A0004080010204081020010204081020000012
:1000B0000007000201000003040600000000000029
:1000C00000002F01800CB20C0311790C11241FBE0B
:1000D000CFEFD8E0DEBFCDBF11E0A0E0B1E0EEE1B0
:1000E000FDE202C005900D92A836B107D9F713E0E2
:1000F000A8E6B1E001C01D92AF37B107E1F710E00B
:10010000CAECD0E004C02297FE010E944716C23C10
:10011000D107C9F70E9459110C9482160C94000063
:10012000A0E0B0E0E6E9F0E00C945316EC01A88002
:10013000B980CA80DB80A114B104C104D10441F4A8
:1001400084E2A82E89EDB82E8BE5C82E87E0D82E44
:10015000C601B5012DE133EF41E050E00E942A16BF
:1001600027EA31E440E050E00E94E9157B018C0170
:10017000C601B5012DE133EF41E050E00E942A169F
:10018000CA01B9012CEE34EF4FEF5FEF0E94E91581
:100190006E0D7F1D801F911F97FF04C0615070403E
:1001A00080409048688379838A839B839B01AC015C
:1001B0005F77B901CA01CDB7DEB7EAE00C946F16DC
:1001C0000E94900008958AE491E00E9490000895B2
:1001D00060934A0170934B0180934C0190934D01C1
:1001E0000895FB01DC018D91019080190110D9F374
:1001F000990B0895FA01CF93FF93EF932230CCF03F
:100200002532BCF4C22F2C2F332744275527FF93C8
:10021000EF930E940816EF91FF91605D6A330CF036
:10022000695D6193B901CA0160507040804090409F
:1002300051F710828F919F91CF910C941F01DC0197
:10024000FC01672F71917723E1F7329704C07C910D
:100250006D9370836291AE17BF07C8F3089580E075
:1002600090E0A8ECB2EC8093680190936901A093B0
:100270006A01B0936B0108956F927F928F929F9263
:10028000AF92BF92CF92DF92EF92FF920F931F93A4
:10029000CF93DF93EC013A014B01E0906801F090BD
:1002A000690100916A0110916B01CB01BA01A801AB
:1002B00097010E942F1487FD17C0C401B30120E0ED
:1002C00030E048EC52E40E947E1518165CF40F2EC4
:1002D000F0E0EF2EF0E0FF2EF8EC0F2FF2E41F2FEE
:1002E000F02D02C0840173018A819B81AC81BD81A4
:1002F0008E839F83A887B987EA82FB820C831D8344
:100300008881882321F417FB109517F91095C801EF
:10031000B70120E030E048EC52E40E94331420E0C2
:1003200030E04FE753E40E9482155B016C01EA84E0
:10033000FB840C851D85A80197010E947E15181667
:10034000B4F500D000D00DB71EB70F5F1F4FC4012A
:10035000B3010E949B142FEF30E040E050E0F80121
:10036000208331834283538320E030E040E050E03B
:10037000B4E6EB2EF12C012D112DAFE7AA2EB12CF6
:10038000C12CD12C0E9478137B018C010F900F900F
:100390000F900F90888961E00E94D70E8A8960E0F3
:1003A0000E94D70EC801B7010E94CE1446C0A80112
:1003B00097015058C601B5010E942F1488230CF0F4
:1003C00045C000D000D00DB71EB70F5F1F4FC4014E
:1003D000B3010E949B1421E03FEF4FEF5FEFF80164
:1003E000208331834283538320E030E040E050E0BB
:1003F000FCE9EF2EFFEFFF2EFFEF0F2FFFEF1F2F78
:10040000E1E8AE2EEFEFBE2EEFEFCE2EEFEFDE2EB9
:100410000E9478137B018C010F900F900F900F902A
:10042000888960E00E94D70E8A8961E00E94D70E19
:10043000C801B7010E94CE1490580E949B149B01E2
:10044000AC018E85B9010E94380E11C08E8560E026
:1004500070E00E94380E8E8560E00E94D70E888979
:1004600060E00E94D70E8A8960E00E94D70E198250
:10047000DF91CF911F910F91FF90EF90DF90CF9080
:10048000BF90AF909F908F907F906F900895FC01E8
:10049000138260936C0110926E010895CF93DF93E5
:1004A000EB01E885F985828193818F36910508F407
:1004B0006CC0828193818B3B910508F066C06EC051
:1004C00084819581809708F46EC084819581C79757
:1004D00008F069C086819781099708F464C0868115
:1004E0009781429708F05FC01F821E828FEF9FEFB7
:1004F000AFEFBFEF8A839B83AC83BD833DC0848114
:100500009581C59708F441C0848195818A3591050C
:1005100008F03BC0369620E030E040E050E063E079
:1005200070E080819181099780F18081918142976B
:1005300060F53FC082819381419708F041C0220F4E
:10054000331F441F551F216008C08D919C910B974C
:10055000E0F4220F331F441F551F34966134710598
:1005600019F06E5F7F4FDDCF80E290E09F838E8336
:100570002A833B834C835D8381E090E09983888369
:1005800021E030E040E050E004C020E030E040E016
:1005900050E0B901CA01DF91CF910895809109021D
:1005A000843009F48DCF80910902843408F0A7CFFC
:1005B000ECCFDF01129682819381099708F0BACFC0
:1005C0008D919C911197059700F3BFCF0F931F93C7
:1005D000CF93DF938B01809109028A3108F460C0C8
:1005E000DB011896ED91FC91199782819381859793
:1005F00008F456C0828193818034910508F050C080
:10060000DF01169640E050E060E070E0C2E0D0E02C
:1006100022C0FD01329780819181079728F1808166
:1006200091810E9708F547C08D919C911197829703
:1006300008F047C0440F551F661F771F416009C06F
:100640008D919C911197439758F5440F551F661F44
:10065000771F22961496809109029E012F5F3F4FCB
:1006600090E028173907ACF2CE0101979595879550
:10067000F801978386830C971CF41782168210C0AA
:10068000D80112964D935D936D937C93159782E0FC
:1006900090E08D939C9321E030E040E050E004C076
:1006A00020E030E040E050E0B901CA01DF91CF9195
:1006B0001F910F9108958D919C911197439708F088
:1006C000B3CF8D919C9111970A9750F3B9CF4F9268
:1006D0005F926F927F928F929F92AF92BF92CF92D2
:1006E000DF92EF92FF920F931F93CF93DF93FB0163
:1006F0002A0139015801DA012D913C9182859385B7
:100700002817390724F001E0802E912CDAC0C901A6
:10071000880F991F0084F185E02DE80FF91FC08034
:10072000D18020FD06C0CCE9DFEFB1E08B2E912C0B
:1007300004C0C4E6D0E088249924BE016A0D7B1D64
:10074000882777FD8095982F0E94CE147B018C011D
:1007500020E030E040E45FE30E94821520E030E0DA
:1007600048E452E40E9433140E949B14C616D70634
:10077000E4F0C801B70120E030E040EA5FE30E9406
:10078000821520E030E048E452E40E94331420E077
:1007900030E040E85FE30E94CB130E949B146C158D
:1007A0007D051CF021E030E076C0B501660F771FB3
:1007B0006C0F7D1F882777FD8095982F0E94CE149F
:1007C0007B018C0120E030E040E45FE30E94821571
:1007D00020E030E048E452E40E9433140E949B146D
:1007E000C616D706E4F0C801B70120E030E040EAC1
:1007F0005FE30E94821520E030E048E452E40E946A
:10080000331420E030E040E85FE30E94CB130E9405
:100810009B146C157D051CF022E030E03CC0C50146
:10082000880F991F8A0D9B1DC80FD91FBE018827ED
:1008300077FD8095982F0E94CE147B018C0120E0DB
:1008400030E040E45FE30E94821520E030E048E4BD
:1008500052E40E9433140E949B14C616D70674F10A
:10086000C801B70120E030E040EA5FE30E94821552
:1008700020E030E048E452E40E94331420E030E00D
:1008800040E85FE30E94CB130E949B146C157D052A
:10089000ACF023E030E0F3018081918101969183F7
:1008A0008083821793076CF011821082D2018D91A0
:1008B0009C91119701968D939C9303C088248A94F0
:1008C000982CC401DF91CF911F910F91FF90EF9071
:1008D000DF90CF90BF90AF909F908F907F906F9060
:1008E0005F904F9008952F923F924F925F926F9238
:1008F0007F928F929F92AF92BF92CF92DF92EF92B0
:10090000FF920F931F93DF93CF9300D000D000D0BE
:10091000CDB7DEB71C015B01809109028D3008F470
:100920007EC081E090E09A8389831C821B8223E051
:10093000822E912C8C0E9D1EC1012E010894411C0B
:10094000511CA201940109E213E00E946703892B64
:1009500009F065C0C101B501A20194010E946703BD
:10096000019709F05CC0C101B501A20194010E9488
:100970006703892B09F053C0CC24DD24760166245B
:100980007724C4018D829E832FC0C101B501A201CD
:100990002D813E8109E213E00E9467034C01C101F1
:1009A000B501A2012D813E810E94670321E08216DC
:1009B000910479F4892B99F5CC0CDD1CEE1CFF1CFD
:1009C00081E090E0A0E0B0E0C82AD92AEA2AFB2A18
:1009D00008C0892821F5019711F5CC0CDD1CEE1C0F
:1009E000FF1C0894611C711C8091090290E0298110
:1009F0003A81281739074CF2D50117967C926E92EE
:100A00001697F501C282D382E482F58283E090E0FA
:100A10009183808321E030E040E050E004C020E09A
:100A200030E040E050E0B901CA0126960FB6F894D4
:100A3000DEBF0FBECDBFCF91DF911F910F91FF9011
:100A4000EF90DF90CF90BF90AF909F908F907F906E
:100A50006F905F904F903F902F9008952F923F920C
:100A60004F925F926F927F928F929F92AF92BF92BE
:100A7000CF92DF92EF92FF920F931F93DF93CF936A
:100A8000CDB7DEB728970FB6F894DEBF0FBECDBF47
:100A90001C014B01DB011A968D919C911B97181636
:100AA00019060CF0A3C081E090E09A838983189620
:100AB000ED91FC91199782819381849708F496C0F7
:100AC00082819381CF9708F091C0AFC084819581D6
:100AD000459708F08BC0B2C0C101B401A3019501D4
:100AE0000CEB11E00E946703019709F07FC0CC2452
:100AF000DD24760144245524C501AD829E83C301C3
:100B00006F82988756C0C101B4014F8158852D81ED
:100B10003E810CEB11E00E9467033C01B3E04B16F1
:100B2000510461F4C101B4014F8158852D813E818A
:100B30000E9467036816790609F058C0C101B40124
:100B40004F8158852D813E810CEB11E00E94670397
:100B50005C01E3E04E16510459F4C101B4014F8128
:100B600058852D813E810E946703A816B906F1F5CC
:100B70006114710489F4F1E0AF16B104B9F5CC0C3D
:100B8000DD1CEE1CFF1C81E090E0A0E0B0E0C82A74
:100B9000D92AEA2AFB2A0AC091E06916710431F5C4
:100BA000AB2821F5CC0CDD1CEE1CFF1C0894411C6D
:100BB000511C29813A81D4011A968D919C911B97E1
:100BC000281739070CF49FCF17965C924E92169710
:100BD000F401C282D382E482F58284E090E09183C2
:100BE000808321E030E040E050E004C020E030E0CD
:100BF00040E050E0B901CA0128960FB6F894DEBF74
:100C00000FBECDBFCF91DF911F910F91FF90EF905D
:100C1000DF90CF90BF90AF909F908F907F906F901C
:100C20005F904F903F902F90089582E090E09A83DC
:100C30008983848195810B97C8F248CF83E090E047
:100C40009A8389831C821B8233E0A32EB12CAC0EC5
:100C5000BD1EC101B4013E010894611C711CA301B9
:100C600095010CEB11E00E946703892B09F0BECFC0
:100C700033CF0F931F93CF93DF938C01EB0181E769
:100C800091E099878887809109028A871B868091E5
:100C90006D018530B9F5C8010E944E0261157105DC
:100CA0008105910591F5C801BE010E94E60261151A
:100CB00071058105910549F5C801BE010E947304C3
:100CC000611571058105910501F5C801BE010E94FC
:100CD0002E056115710581059105B9F48A859B85FD
:100CE00006975CF08FEF9FEF998388831F821E82A7
:100CF0001A821B821C821D8208C082E080936D01D3
:100D00001092090220E030E002C021E030E0C90189
:100D1000DF91CF911F910F9108950F931F93CF9360
:100D2000DF938C0120E830E0D9018C91E8018883C1
:100D3000E1E8F0E080818983AFE6B0E08C918A83BE
:100D4000E9011882108280818B7F8083808182609C
:100D5000808380818E7F80838C9181608C9381EAF7
:100D60009FEF9093850080938400789482E0809335
:100D70006D011092090280916C0160E00E94980E52
:100D800081E0F8018383DF91CF911F910F91089546
:100D90000F931F93DF93CF93CDB7DEB766970FB650
:100DA000F894DEBF0FBECDBF8C01FC018381882388
:100DB00019F4C8010E948D06C801BE01655F7F4F0E
:100DC0000E943906892B19F420E030E0D6C08B85CB
:100DD0009C85039709F0ACC06D857E858F859889C9
:100DE0008E010F5F1F4FA80120E130E00E94FA0042
:100DF000C80160E071E00E94F100009709F49BC017
:100E0000C80162E071E00E94F100009709F493C00C
:100E1000C80166E071E00E94F100009709F48EC0FD
:100E2000C80168E071E00E94F100009709F486C0F3
:100E3000C8016CE071E00E94F100009709F481C0E4
:100E4000C8016EE071E00E94F100009709F479C0DA
:100E5000C80162E171E00E94F100009709F474C0DA
:100E6000C80164E171E00E94F100009709F46CC0D0
:100E70008E010F5F1F4FC80168E171E00E94F10011
:100E8000009709F464C0C8016AE171E00E94F100B2
:100E9000009709F45CC0C8016EE171E00E94F100A6
:100EA000009709F457C0C80160E271E00E94F100A8
:100EB000009709F44FC0C80164E271E00E94F1009C
:100EC000009709F44AC0C80166E271E00E94F1008F
:100ED000009709F442C0C8016AE271E00E94F10083
:100EE0000097F1F1C8016CE271E00E94F1000097F7
:100EF000B9F1C80160E371E00E94F100009799F137
:100F0000C80162E371E00E94F100009761F18E0177
:100F10000F5F1F4FC80166E371E00E94F100009768
:100F200029F1C80168E371E00E94F1000097F1F037
:100F300020E030E01DC02AE030E01AC021E030E0BF
:100F400017C022E030E014C023E030E011C024E0FC
:100F500030E00EC025E030E00BC026E030E008C0F5
:100F600027E030E005C028E030E002C029E030E0B2
:100F700082E080936D0110920902C90166960FB656
:100F8000F894DEBF0FBECDBFCF91DF911F910F91BF
:100F900008951F920F920FB60F9211242F933F9333
:100FA0004F935F936F937F938F939F93AF93BF9371
:100FB000EF93FF9381EA9FEF9093850080938400E5
:100FC00080916C010E942B0F482F80916F019091AE
:100FD000700101969093700180936F0180910902D6
:100FE0008C3418F085E080936D0180916D01833021
:100FF000D1F0843020F4823009F059C006C084302A
:1010000071F1853009F053C04CC0442309F04FC042
:1010100080916F01909170018436910508F443C06E
:10102000109209021EC0413009F041C080910902AE
:10103000E82FF0E020916F0130917001EE0FFF1F5B
:10104000E459FE4F368325838F5F80930902109207
:10105000700110926F0184E080936D0128C04423D9
:10106000B9F480910902E82FF0E020916F013091EE
:101070007001EE0FFF1FE459FE4F368325838F5F0B
:10108000809309021092700110926F0183E0E4CF07
:1010900080916F01909170018536910540F085E057
:1010A000DBCF442321F41092700110926F018091E4
:1010B0006E01882329F0442311F42D9A01C02D9844
:1010C000FF91EF91BF91AF919F918F917F916F9120
:1010D0005F914F913F912F910F900FBE0F901F90F6
:1010E00018950F931F938C01FC01868160E00E948C
:1010F000D70E81E090E00E94690DF801868161E0E1
:101100000E94D70E81E090E00E94690DF80186816F
:1011100060E00E94D70E84E690E00E94690D1F9166
:101120000F910895CF92DF92EF92FF920F931F934A
:10113000CF93DF93D82EC92E282F392FC9018C01C8
:10114000C0E0D0E0E62EFF24F801878161E00E9434
:10115000980EB7010C2E02C0759567950A94E2F7B8
:101160006170F80187810E94D70E21960F5F1F4F93
:10117000C830D10549F78D2D9C2D0E947108DF9153
:10118000CF911F910F91FF90EF90DF90CF90089536
:10119000CF92DF92EF92FF920F931F93CF93DF9343
:1011A000D82EC92E282F392FC9018C01C0E0D0E0DC
:1011B000E62EFF24F801878161E00E94980EB701B6
:1011C0000C2E02C0759567950A94E2F76170F801DC
:1011D00087810E94D70E21960F5F1F4FC430D10523
:1011E00049F78D2D9C2D0E947108DF91CF911F91A1
:1011F0000F91FF90EF90DF90CF9008951F93CF93C2
:10120000DF93EC01162F8C81642F0E94D70E8D8105
:101210008F3F19F060E00E94D70E8F8584FF05C0D4
:10122000CE01612F0E9492080EC0612F70E084E011
:10123000759567958A95E1F7CE010E94C808CE01A1
:10124000612F0E94C808DF91CF911F91089541E05E
:101250000E94FE0881E090E0089540E00E94FE08B0
:101260000895FC016089862F8460808B6C60CF01BB
:101270000E942D09089561E00E942D0980ED97E0FC
:101280000E94690D0895CF93DF93EC01423018F06E
:101290008F8588608F874B8B1C8A222329F04130F1
:1012A00019F48F8584608F8780E593EC0E94690D27
:1012B0008C8160E00E94D70E8E8160E00E94D70E84
:1012C0008D818F3F19F060E00E94D70E6F8564FD1D
:1012D0001DC0CE0163E00E94C80884E991E10E942C
:1012E000690DCE0163E00E94C80884E991E10E9483
:1012F000690DCE0163E00E94C80886E990E00E9473
:10130000690DCE0162E00E94C80816C06062CE017D
:101310000E942D0984E991E10E94690D6F85606248
:10132000CE010E942D0986E990E00E94690D6F852B
:101330006062CE010E942D096F856062CE010E941D
:101340002D0984E0888BCE010E943109CE010E94D4
:101350003B0982E0898BCE0166E00E942D09DF9176
:10136000CF9108956F927F928F92AF92CF92EF922A
:101370000F931F93DF93CF93CDB7DEB73C01162FAA
:10138000842FF301448325830683E782C086A186E8
:1013900082869D8593879E8594879F85958798896A
:1013A000968761E00E94980EF30185818F3F19F0C6
:1013B00061E00E94980EF301868161E00E94980E20
:1013C000112319F0F301178603C080E1F301878729
:1013D000C30160E141E020E00E944309CF91DF9129
:1013E0001F910F91EF90CF90AF908F907F906F9063
:1013F00008958F92AF92CF92EF920F931F93CF9356
:10140000DF93DC01362F542F722F102FAE2C8C2C33
:1014100013961C921E92129783E591E011969C936D
:101420008E9300D000D0EDB7FEB73196CDB7DEB7C2
:101430001982118212821382CD0161E0432F2FEFB6
:10144000052FE72EC12E0E94B2090F900F900F902A
:101450000F90DF91CF911F910F91EF90CF90AF90B0
:101460008F900895FC0180910A028C3090F4828361
:101470008F5F80930A02815090E0FC01EE0FFF1F06
:10148000E80FF91FE55FFD4F88EB9BE092838183B6
:1014900008958FEF828308951F920F920FB60F92D7
:1014A00011242F933F934F935F936F937F938F9369
:1014B0009F93AF93BF93EF93FF9380912F0287FF8A
:1014C00005C010928500109284002BC020912F023D
:1014D000332727FD309580910A0290E028173907BD
:1014E00004F580912F02992787FD9095FC01EE0F5E
:1014F000FF1FE80FF91FE55FFD4F808186FF11C0D8
:1015000080912F02992787FD9095FC01EE0FFF1F18
:10151000E80FF91FE55FFD4F80818F7360E00E9447
:10152000D70E80912F028F5F80932F0220912F0280
:10153000332727FD309580910A0290E0281739075C
:101540000CF04EC080912F028C300CF049C02091DD
:1015500084003091850080912F02992787FD909516
:10156000FC01EE0FFF1FE80FF91FE55FFD4F8181C2
:101570009281280F391F3093890020938800809131
:101580002F02992787FD9095FC01EE0FFF1FE80FB2
:10159000F91FE55FFD4F808186FF2BC080912F02F0
:1015A000992787FD9095FC01EE0FFF1FE80FF91FAB
:1015B000E55FFD4F80818F7361E00E94D70E19C0F7
:1015C00080E49CE905C08091840090918500049698
:1015D00090938900809388008FEF80932F0209C039
:1015E0008091840090918500049680549C4940F33A
:1015F000EACFFF91EF91BF91AF919F918F917F9132
:101600006F915F914F913F912F910F900FBE0F906F
:101610001F901895EF92FF920F931F93FC01162FC6
:10162000F42EE22E0083118280E090E0A0E0B0E092
:1016300082839383A483B58386839783A087B187AE
:101640008DEC9CECACECBDE382879387A487B587D7
:1016500066877787408B518B228B338B862F61E097
:101660000E94980E8F2D61E00E94980E8E2D61E0F1
:101670000E94980E812F60E00E94D70E8F2D60E0AF
:101680000E94D70E8E2D60E00E94D70E1F910F9101
:10169000FF90EF900895AF92BF92CF92EF920F9389
:1016A000CF93DF93EC015B018130910509F019C103
:1016B0008FEF6F3F780709F014C180E090E0A8EC4D
:1016C000B2EC8093CC029093CD02A093CE02B09363
:1016D000CF0280E392E066E070E045E050E027E072
:1016E00030E001E00E940A0B84E492E063E070E0E5
:1016F00044E050E022E030E00E940A0B88E592E0EE
:101700000E94320A8DE592E00E94320A82E692E05F
:101710000E94320A87E692E06CE04BE025E004E0AC
:1017200053E0E52E32E0C32E0E94F9098CE792E0E7
:101730006EE070E00E9447021092810210928002D7
:10174000D0938302C0938202109285021092840289
:10175000D0938702C093860225E020938802B0923E
:10176000A802A092A7028DE292EBA6E6B1E48093D4
:10177000890290938A02A0938B02B0938C0284E238
:1017800099EBACEDBFE380938D0290938E02A09312
:101790008F02B093900280E090E0A0EAB1E48093E1
:1017A000910290939202A0939302B093940284EBDF
:1017B00098ECA1E9B1E48093950290939602A093EE
:1017C0009702B093980283E49CE1ADEAB0E4809381
:1017D000990290939A02A0939B02B0939C0280E09E
:1017E00090E0ACE8B2E480939D0290939E02A093B7
:1017F0009F02B093A0028EEF91E09093A20280939B
:10180000A10289EB90E09093A4028093A30285E665
:1018100090E09093A6028093A502D093AA02C09371
:10182000A9022093AB02B092CB02A092CA0286EE2C
:101830009FE3A8ECB0E48093AC029093AD02A09338
:10184000AE02B093AF028FE29DEDACEEBFE38093AA
:10185000B0029093B102A093B202B093B30280E0C1
:1018600090E0A0E2B1E48093B4029093B502A0931B
:10187000B602B093B7028AEA92E8ACE0B1E4809392
:10188000B8029093B902A093BA02B093BB028AE166
:1018900091E5A2ECB0E48093BC029093BD02A093CA
:1018A000BE02B093BF0280E090E0ACE0B2E480936F
:1018B000C0029093C102A093C202B093C30283E01E
:1018C00092E09093C5028093C40287EA90E09093DF
:1018D000C7028093C6028AE590E09093C902809384
:1018E000C802DF91CF910F91EF90CF90BF90AF9052
:1018F000089580E090E06FEF7FEF0E944B0B08951A
:1019000081E090E06FEF7FEF0E944B0B08958DED2B
:1019100092E040E051EE60E070E00E94F60F80E05F
:101920000E94160E0E94C11386E060E070E00E94E3
:10193000380E83E060E070E00E94380E8FE090E0A7
:10194000909359028093580280E190E090935E0258
:1019500080935D0281E190E0909363028093620244
:101960000895089580E090E0A8ECB2EC8093D00256
:101970009093D102A093D202B093D30208950F9313
:101980001F93182F062F61E00E94980E812F602F61
:101990000E94D70E1F910F910895EF92FF920F931F
:1019A0001F930E94870C8CE792E00E94C806AA272A
:1019B00097FDA095BA2FBC01CD010E94CE147B01EA
:1019C0008C018DED92E0B801A70122E030E00E9489
:1019D000651364EF71E080E090E00E94AE0DC801F5
:1019E000B7010E949B146630710599F489E061E0AB
:1019F0000E94BF0C80E392E040E050E068EC72ECA3
:101A00000E943C0184E492E040E050E068EC72EC1B
:101A100015C06330710539F689E060E00E94BF0CA3
:101A200080E392E040E050E060E070E00E943C0122
:101A300084E492E040E050E060E070E00E943C010D
:101A4000B2CF1F920F920FB60F9211242F933F9394
:101A50008F939F93AF93BF938091D8029091D902B7
:101A6000A091DA02B091DB023091DC020196A11D57
:101A7000B11D232F2D5F2D3720F02D570196A11D6D
:101A8000B11D2093DC028093D8029093D902A093D9
:101A9000DA02B093DB028091D4029091D502A0913A
:101AA000D602B091D7020196A11DB11D8093D40238
:101AB0009093D502A093D602B093D702BF91AF9175
:101AC0009F918F913F912F910F900FBE0F901F907C
:101AD0001895019739F0880F991F880F991F029761
:101AE0000197F1F70895789484B5826084BD84B538
:101AF000816084BD85B5826085BD85B5816085BD09
:101B0000EEE6F0E0808181608083E1E8F0E0108221
:101B1000808182608083808181608083E0E8F0E062
:101B2000808181608083E1EBF0E08081846080834C
:101B3000E0EBF0E0808181608083EAE7F0E0808183
:101B400084608083808182608083808181608083E3
:101B50008081806880831092C1000895EF92FF9287
:101B60000F931F93CF93DF937B018C013FB7F894C2
:101B70008091D4029091D502A091D602B091D70263
:101B800026B5A89B05C02F3F19F00196A11DB11DD8
:101B90003FBFBA2FA92F982F8827820F911DA11D13
:101BA000B11D52E0880F991FAA1FBB1F5A95D1F78C
:101BB000EC0130C00E94C9133FB7F8948091D40261
:101BC0009091D502A091D602B091D70226B5A89BDC
:101BD00005C02F3F19F00196A11DB11D3FBFBA2FBF
:101BE000A92F982F8827820F911DA11DB11D32E0CA
:101BF000880F991FAA1FBB1F3A95D1F78C1B9D0B0D
:101C0000885E9340B8F20894E108F10801091109CF
:101C1000C851DC4FE114F1040105110559F6DF91BB
:101C2000CF911F910F91FF90EF900895982F8E30D4
:101C300008F09E50977080914E018295880F880F12
:101C4000807C892B80937C0080917A0080648093D3
:101C50007A0080917A0086FDFCCF20917800409137
:101C60007900942F80E030E0282B392BC9010895AA
:101C70001F93CF93DF93182FEB0161E00E94980E22
:101C8000209709F44AC0CF3FD10509F449C0E12F9C
:101C9000F0E0E255FF4F84918330C1F0843028F4A6
:101CA000813051F08230B1F50CC0863019F18730A7
:101CB00049F1843079F514C084B5806884BDC7BD0E
:101CC00033C084B5806284BDC8BD2EC080918000C1
:101CD000806880938000D0938900C093880024C0DE
:101CE00080918000806280938000D0938B00C093AD
:101CF0008A001AC08091B00080688093B000C093C1
:101D0000B30012C08091B00080628093B000C09395
:101D1000B4000AC0C038D1051CF4812F60E002C0B5
:101D2000812F61E00E94D70EDF91CF911F9108951E
:101D3000CF93DF93482F50E0CA0186569F4FFC0196
:101D400034914A575F4FFA018491882369F190E0FA
:101D5000880F991FFC01E859FF4FA591B491FC0130
:101D6000EE58FF4FC591D491662351F42FB7F894E4
:101D70008C91932F909589238C93888189230BC014
:101D8000623061F42FB7F8948C91932F909589234A
:101D90008C938881832B88832FBF06C09FB7F894CC
:101DA0008C91832B8C939FBFDF91CF910895482F07
:101DB00050E0CA0182559F4FFC012491CA0186560A
:101DC0009F4FFC0194914A575F4FFA01349133239E
:101DD00009F440C0222351F1233071F0243028F45B
:101DE0002130A1F0223011F514C02630B1F0273097
:101DF000C1F02430D9F404C0809180008F7703C0F3
:101E0000809180008F7D8093800010C084B58F7793
:101E100002C084B58F7D84BD09C08091B0008F77EA
:101E200003C08091B0008F7D8093B000E32FF0E07D
:101E3000EE0FFF1FEE58FF4FA591B4912FB7F89406
:101E4000662321F48C919095892302C08C91892B73
:101E50008C932FBF0895682F70E0CB0182559F4F60
:101E6000FC012491CB0186569F4FFC0144916A5797
:101E70007F4FFB019491992319F420E030E03CC09E
:101E8000222351F1233071F0243028F42130A1F0C5
:101E9000223011F514C02630B1F02730C1F02430C3
:101EA000D9F404C0809180008F7703C080918000B6
:101EB0008F7D8093800010C084B58F7702C084B579
:101EC0008F7D84BD09C08091B0008F7703C0809161
:101ED000B0008F7D8093B000892F90E0880F991F0C
:101EE00084589F4FFC01A591B4918C9120E030E083
:101EF000842311F021E030E0C901089508951F9274
:101F00000F920FB60F9211242F933F934F938F93FD
:101F10009F93EF93FF938091C00082FD19C0409181
:101F2000C6008091FB02282F30E02F5F3F4F2F73B8
:101F300030708091FC0290E02817390759F0E09149
:101F4000FB02F0E0E352FD4F42A32093FB0202C0EC
:101F50008091C600FF91EF919F918F914F913F919A
:101F60002F910F900FBE0F901F9018958091FB023C
:101F70002091FC0290E0805C9F4F821B91098F733F
:101F80009070892B11F00E947E0F08951F920F927E
:101F90000FB60F9211242F938F939F93EF93FF937C
:101FA0009091FD028091FE02981731F48091C1005A
:101FB0008F7D8093C10010C0E091FE02F0E0E15CF3
:101FC000FC4F20818091FE0290E001968F7390700B
:101FD0008093FE022093C600FF91EF919F918F9115
:101FE0002F910F900FBE0F901F901895AF92BF9238
:101FF000DF92EF92FF920F931F93CF93DF93EC0149
:102000007A018B01DD24403081EE580780E06807BB
:1020100080E0780711F0DD24D39491E0A92EB12C53
:10202000E889F989DD2069F0C5010C8C02C0880FB0
:10203000991F0A94E2F7808360E079E08DE390E0F5
:1020400005C0108260E874E88EE190E0A801970175
:102050000E94081621503040404050405695479508
:102060003795279580E12030380720F0DD2011F0EA
:10207000DD24D6CFEC85FD853083EE85FF8520837A
:102080001D8EEA89FB89408121E030E0C901088C7E
:1020900002C0880F991F0A94E2F7482B4083EA890F
:1020A000FB894081C901098C02C0880F991F0A94DD
:1020B000E2F7482B4083EA89FB894081C9010A8CF9
:1020C00002C0880F991F0A94E2F7482B4083EA89DF
:1020D000FB8980810B8C02C0220F331F0A94E2F728
:1020E000209528232083DF91CF911F910F91FF909E
:1020F000EF90DF90BF90AF900895FC01268D878D03
:1021000030E0205C3F4F281B31092F733070C9012C
:102110000895FC01968D878D981719F42FEF3FEFE6
:1021200006C0878DE80FF11D82A1282F30E0C9017C
:102130000895DC015E969C915E975F968C915F9707
:10214000981719F42FEF3FEF10C05F968C915F97AF
:10215000FD01E80FF11D92A15F968C915F978F5F53
:102160008F735F968C93292F30E0C9010895DC01AD
:102170005D968C915D97882339F05096ED91FC9196
:102180005197808186FFF9CF5D961C920895DC01FE
:1021900090968C919097282F30E02F5F3F4F2F73B0
:1021A000307091968C91919790E028173907C9F378
:1021B00090968C919097FD01E80FF11DEE59FF4F1D
:1021C000608390962C9390975296ED91FC91539743
:1021D000208181E090E05B960C905B9702C0880FB5
:1021E000991F0A94E2F7282B208381E05D968C9357
:1021F0005D975096ED91FC9151978081806480832A
:1022000081E090E008951092E0021092DF0288EEE3
:1022100093E0A0E0B0E08093E1029093E202A0930B
:10222000E302B093E4028BE591E09093DE028093A9
:10223000DD021092FE028091FE028093FD02109258
:10224000FC028091FC028093FB0285EC90E090936D
:10225000EA028093E90284EC90E09093EC02809390
:10226000EB0280EC90E09093EE028093ED0281EC23
:1022700090E09093F0028093EF0282EC90E09093D4
:10228000F2028093F10286EC90E09093F402809346
:10229000F30284E08093F50283E08093F60287E006
:1022A0008093F70285E08093F80281E08093F90241
:1022B0000895CF93DF930E94730D0E94CD0CC6EB5F
:1022C000DFE00E94B10C2097E1F30E94B60FF9CF36
:1022D000CF92DF92EF92FF920F931F93CF93DF93F2
:1022E0007C016B018A01C0E0D0E00FC0D6016D9186
:1022F0006D01D701ED91FC910190F081E02DC701B6
:102300000995C80FD91F015010400115110571F72B
:10231000CE01DF91CF911F910F91FF90EF90DF9051
:10232000CF900895EF92FF920F931F938C01DC01E1
:10233000ED91FC910190F081E02D6DE009957C011B
:10234000D801ED91FC910190F081E02DC8016AE087
:1023500009959C012E0D3F1DC9011F910F91FF9002
:10236000EF900895CF93DF93EC016115710519F497
:1023700020E030E00FC0DB010D900020E9F711975D
:10238000A61BB70BE881F9810280F381E02DAD0136
:1023900009959C01C901DF91CF9108954F925F92F9
:1023A0007F928F929F92AF92BF92CF92DF92EF92E5
:1023B000FF920F931F93DF93CF93CDB7DEB7A19713
:1023C0000FB6F894DEBF0FBECDBF2C01742ECB012B
:1023D000223008F42AE019A231E2C32ED12CCC0E0F
:1023E000DD1E822E9924AA24BB24672D752FA501FA
:1023F00094010E94081679018A01C801B701A5015C
:1024000094010E94E915472D461B0894C108D10884
:102410004A3014F4405D01C0495CF6014083E11488
:10242000F1040105110521F07E2C5F2DC801DDCFDF
:10243000C201B6010E94B211A1960FB6F894DEBF98
:102440000FBECDBFCF91DF911F910F91FF90EF9005
:10245000DF90CF90BF90AF909F908F907F905F90D4
:102460004F900895DC012115310541F4ED91FC9167
:102470000190F081E02D642F099508950E94CE11FE
:102480000895CF92DF92EF92FF920F931F93CF9315
:10249000DF93EC016A017B012115310541F4E881EC
:1024A000F9810190F081E02D642F09951FC02A3039
:1024B0003105D1F477FF17C0E881F9810190F081EF
:1024C000E02D6DE209958C0144275527BA014C197E
:1024D0005D096E097F09CE012AE00E94CE119801A4
:1024E000280F391F04C02AE00E94CE119C01C901A7
:1024F000DF91CF911F910F91FF90EF90DF90CF90E0
:1025000008957F928F929F92AF92BF92CF92DF9267
:10251000EF92FF920F931F93CF93DF934C017A01B9
:102520008B01722ECB01BA01A80197010E94E5151B
:10253000882321F0C4016CE371E021C0C0E0D0E049
:1025400057016801E894D7F8C601B5012FEF3FEFB6
:102550004FE75FE70E94E515882351F4C601B501F6
:102560002FEF3FEF4FE75FE70E942F14181614F08C
:10257000C1E0D0E0219739F0C40160E471E00E942D
:10258000B211EC0193C0C801B7012FEF3FEF4FE745
:102590005FE40E947E15181654F0C801B7012FEFB2
:1025A0003FEF4FE75FEC0E942F14882324F4C4010F
:1025B00064E471E0E4CFC801B70120E030E040E01E
:1025C00050E00E942F1487FD03C0C0E0D0E00EC091
:1025D000D401ED91FC910190F081E02DC4016DE2F8
:1025E0000995EC0117FB109517F9109520E030E0E4
:1025F00040E05FE3DD240BC0CA01B90120E030E018
:1026000040E251E40E9433149B01AC01D394D714EF
:1026100098F3C801B7010E94CB135B016C010E94C3
:10262000A0147B018C01C401B801A7012AE030E0AD
:102630000E943212C80FD91F772039F0C40168E414
:1026400071E00E94B211C80FD91FC801B7010E94E2
:10265000CC149B01AC01C601B5010E94CA1324C071
:1026600020E030E040E251E40E9482157B018C01C1
:102670000E949B145B016C01CC24B7FCC094DC2C41
:10268000C401B601A5012AE030E00E944112C80F42
:10269000D91FC601B5010E94CE149B01AC01C8012F
:1026A000B7010E94CA137A947720D1F6CE01DF9148
:1026B000CF911F910F91FF90EF90DF90CF90BF903F
:1026C000AF909F908F907F900895EF92FF920F931D
:1026D0001F937C010E9481128C01C7010E949211FC
:1026E000080F191FC8011F910F91FF90EF900895D7
:1026F0002F923F924F925F926F927F928F929F9212
:10270000AF92BF92CF92DF92EF92FF920F931F93FF
:10271000DF93CF93CDB7DEB73B014C0119012A01FE
:102720006D897E898F89988D6A197B098C099D092D
:10273000621A730A840A950AA40193010E94E9159A
:10274000E218F30804091509A80197010E942A1646
:102750002A0D3B1D4C1D5D1DB901CA01CF91DF91B2
:102760001F910F91FF90EF90DF90CF90BF90AF90AF
:102770009F908F907F906F905F904F903F902F90A1
:102780000895009729F0BC0180E090E00E94E800E5
:10279000089508955058BB27AA270ED075C166D159
:1027A00030F06BD120F031F49F3F11F41EF45BC187
:1027B0000EF4E095E7FB51C1E92F77D180F3BA170A
:1027C000620773078407950718F071F49EF58FC1AF
:1027D0000EF4E0950B2EBA2FA02D0B01B90190013C
:1027E0000C01CA01A0011124FF27591B99F0593F80
:1027F00050F4503E68F11A16F040A22F232F342FC8
:102800004427585FF3CF469537952795A795F04015
:102810005395C9F77EF41F16BA0B620B730B840B2A
:10282000BAF09150A1F0FF0FBB1F661F771F881FE2
:10283000C2F70EC0BA0F621F731F841F48F487953A
:1028400077956795B795F7959E3F08F0B3CF939529
:10285000880F08F09927EE0F979587950895D9D09E
:1028600008F481E008950CD00FC107D140F0FED0EC
:1028700030F021F45F3F19F0F0C0511139C1F3C0BD
:1028800014D198F39923C9F35523B1F3951B550B34
:10289000BB27AA2762177307840738F09F5F5F4F33
:1028A000220F331F441FAA1FA9F333D00E2E3AF074
:1028B000E0E830D091505040E695001CCAF729D08E
:1028C000FE2F27D0660F771F881FBB1F26173707DD
:1028D0004807AB07B0E809F0BB0B802DBF01FF270D
:1028E00093585F4F2AF09E3F510568F0B6C000C173
:1028F0005F3FECF3983EDCF3869577956795B79547
:10290000F7959F5FC9F7880F911D9695879597F961
:102910000895E1E0660F771F881FBB1F62177307DA
:102920008407BA0720F0621B730B840BBA0BEE1FEF
:1029300088F7E095089504D06894B111D9C008953E
:10294000BCD088F09F5790F0B92F9927B751A0F0CD
:10295000D1F0660F771F881F991F1AF0BA95C9F733
:1029600012C0B13081F0C3D0B1E00895C0C0672F6C
:10297000782F8827B85F39F0B93FCCF386957795E3
:102980006795B395D9F73EF49095809570956195CC
:102990007F4F8F4F9F4F0895E89409C097FB3EF4F7
:1029A00090958095709561957F4F8F4F9F4F99239C
:1029B000A9F0F92F96E9BB279395F695879577951A
:1029C0006795B795F111F8CFFAF4BB0F11F460FFDA
:1029D0001BC06F5F7F4F8F4F9F4F16C0882311F032
:1029E00096E911C0772321F09EE8872F762F05C046
:1029F000662371F096E8862F70E060E02AF09A95E1
:102A0000660F771F881FDAF7880F9695879597F9D5
:102A10000895990F0008550FAA0BE0E8FEEF16166F
:102A20001706E807F907C0F012161306E407F507C2
:102A300098F0621B730B840B950B39F40A2661F036
:102A4000232B242B252B21F408950A2609F4A140D9
:102A5000A6958FEF811D811D089597F99F6780E8E6
:102A600070E060E008959FEF80EC089500240A94E0
:102A70001616170618060906089500240A94121659
:102A80001306140605060895092E0394000C11F48C
:102A9000882352F0BB0F40F4BF2B11F460FF04C039
:102AA0006F5F7F4F8F4F9F4F089557FD9058440F92
:102AB000551F59F05F3F71F04795880F97FB991F9D
:102AC00061F09F3F79F0879508951216130614065A
:102AD000551FF2CF4695F1DF08C0161617061806E7
:102AE000991FF1CF86957105610508940895E894C2
:102AF000BB2766277727CB0197F908958ADF08F46B
:102B00008FEF08950BD0C0CFB1DF28F0B6DF18F0FB
:102B1000952309F0A2CFA7CF1124EACFC6DFA0F3F7
:102B2000959FD1F3950F50E0551F629FF001729F62
:102B3000BB27F00DB11D639FAA27F00DB11DAA1F81
:102B4000649F6627B00DA11D661F829F2227B00DCE
:102B5000A11D621F739FB00DA11D621F839FA00D59
:102B6000611D221F749F3327A00D611D231F849FA9
:102B7000600D211D822F762F6A2F11249F57504000
:102B80008AF0E1F088234AF0EE0FFF1FBB1F661F9B
:102B9000771F881F91505040A9F79E3F510570F054
:102BA0005CCFA6CF5F3FECF3983EDCF3869577953C
:102BB0006795B795F795E7959F5FC1F7FE2B880F4F
:102BC000911D9695879597F9089523DF880B990BAA
:102BD0000895629FD001739FF001829FE00DF11D67
:102BE000649FE00DF11D929FF00D839FF00D749F87
:102BF000F00D659FF00D9927729FB00DE11DF91F33
:102C0000639FB00DE11DF91FBD01CF01112408958F
:102C1000A1E21A2EAA1BBB1BFD010DC0AA1FBB1FE0
:102C2000EE1FFF1FA217B307E407F50720F0A21B52
:102C3000B30BE40BF50B661F771F881F991F1A94BF
:102C400069F760957095809590959B01AC01BD01E9
:102C5000CF01089597FB092E05260ED057FD04D00D
:102C6000D7DF0AD0001C38F4509540953095219557
:102C70003F4F4F4F5F4F0895F6F7909580957095B1
:102C800061957F4F8F4F9F4F0895EE0FFF1F059067
:102C9000F491E02D09942F923F924F925F926F92A0
:102CA0007F928F929F92AF92BF92CF92DF92EF92DC
:102CB000FF920F931F93CF93DF93CDB7DEB7CA1B5D
:102CC000DB0B0FB6F894DEBF0FBECDBF09942A8888
:102CD000398848885F846E847D848C849B84AA8430
:102CE000B984C884DF80EE80FD800C811B81AA81BD
:102CF000B981CE0FD11D0FB6F894DEBF0FBECDBF88
:102D0000ED01089510E0CAECD0E004C0FE010E947D
:0E2D100047162296CC3CD107C9F7F894FFCFA6
:102D1E003000383030003100383031003200383079
:102D2E003200330038303300340038303400350090
:102D3E00383035003600383036003700383037003E
:102D4E003800383038003900383039006E616E0086
:102D5E00696E66006F7666002E00010000000100AD
:102D6E000000002709681100000000C71068117DDF
:082D7E001099108910B7100034
:00000001FF
