:100000000C9466000C948E000C948E000C948E0060
:100010000C948E000C948E000C948E000C948E0028
:100020000C948E000C948E000C948E000C9488031B
:100030000C948E000C9405010C948E000C948E0090
:100040000C940B070C948E000C9477090C94BE0949
:100050000C948E000C948E000C948E000C948E00E8
:100060000C948E000C948E000000000024002700E9
:100070002A0000000000250028002B0000000000DE
:1000800023002600290004040404040404040202DA
:100090000202020203030303030301020408102007
:1000A0004080010204081020010204081020000012
:1000B0000007000201000003040600000000000029
:1000C0000000F100BC05EE05FB0AB50511241FBEBA
:1000D000CFEFD8E0DEBFCDBF11E0A0E0B1E0E2EAB3
:1000E000F0E202C005900D92AA3CB107D9F713E0E7
:1000F000AAECB1E001C01D92A13EB107E1F710E00A
:10010000CAECD0E004C02297FE010E940910C23C54
:10011000D107C9F70E94510B0C9444100C940000B5
:10012000A0E0B0E0E6E9F0E00C941510EC01A88046
:10013000B980CA80DB80A114B104C104D10441F4A8
:1001400084E2A82E89EDB82E8BE5C82E87E0D82E44
:10015000C601B5012DE133EF41E050E00E94EC0F04
:1001600027EA31E440E050E00E94AB0F7B018C01B4
:10017000C601B5012DE133EF41E050E00E94EC0FE4
:10018000CA01B9012CEE34EF4FEF5FEF0E94AB0FC5
:100190006E0D7F1D801F911F97FF04C0615070403E
:1001A00080409048688379838A839B839B01AC015C
:1001B0005F77B901CA01CDB7DEB7EAE00C94311020
:1001C0000E94900008958CEA91E00E9490000895AA
:1001D0006093AC017093AD018093AE019093AF0139
:1001E000089580E090E0A8ECB2EC8093CA0190936F
:1001F000CB01A093CC01B093CD010895FC011382F3
:100200006093CE011092D00108951F920F920FB605
:100210000F9211242F933F934F935F936F937F938C
:100220008F939F93AF93BF93EF93FF9381EA9FEFD9
:1002300090938500809384008091CE010E942309D1
:10024000482F8091D1019091D20101969093D201D3
:100250008093D10180916B028C3418F085E08093FB
:10026000CF018091CF018330D1F0843020F48230EF
:1002700009F059C006C0843071F1853009F053C0CF
:100280004CC0442309F04FC08091D1019091D2011C
:100290008436910508F443C010926B021EC04130B1
:1002A00009F041C080916B02E82FF0E02091D1016C
:1002B0003091D201EE0FFF1FE253FE4F36832583AC
:1002C0008F5F80936B021092D2011092D10184E073
:1002D0008093CF0128C04423B9F480916B02E82FAA
:1002E000F0E02091D1013091D201EE0FFF1FE253D7
:1002F000FE4F368325838F5F80936B021092D2016D
:100300001092D10183E0E4CF8091D1019091D2018C
:100310008536910540F085E0DBCF442321F410922F
:10032000D2011092D1018091D001882329F0442379
:1003300011F42D9A01C02D98FF91EF91BF91AF91CB
:100340009F918F917F916F915F914F913F912F91ED
:100350000F900FBE0F901F9018950F931F938C0155
:10036000FC01868160E00E94CF0881E090E00E945D
:100370006107F801868161E00E94CF0881E090E08A
:100380000E946107F801868160E00E94CF0884E640
:1003900090E00E9461071F910F910895CF92DF9224
:1003A000EF92FF920F931F93CF93DF93D82EC92E16
:1003B000282F392FC9018C01C0E0D0E0E62EFF24A0
:1003C000F801878161E00E949008B7010C2E02C0FD
:1003D000759567950A94E2F76170F80187810E942C
:1003E000CF0821960F5F1F4FC830D10549F78D2DDB
:1003F0009C2D0E94AD01DF91CF911F910F91FF9035
:10040000EF90DF90CF900895CF92DF92EF92FF921E
:100410000F931F93CF93DF93D82EC92E282F392FF8
:10042000C9018C01C0E0D0E0E62EFF24F8018781ED
:1004300061E00E949008B7010C2E02C07595679587
:100440000A94E2F76170F80187810E94CF08219633
:100450000F5F1F4FC430D10549F78D2D9C2D0E9491
:10046000AD01DF91CF911F910F91FF90EF90DF9041
:10047000CF9008951F93CF93DF93EC01162F8C81BB
:10048000642F0E94CF088D818F3F19F060E00E9499
:10049000CF088F8584FF05C0CE01612F0E94CE0159
:1004A0000EC0612F70E084E0759567958A95E1F73D
:1004B000CE010E940402CE01612F0E940402DF914E
:1004C000CF911F91089541E00E943A0281E090E0AF
:1004D000089540E00E943A020895FC016089862F49
:1004E0008460808B6C60CF010E946902089561E096
:1004F0000E94690280ED97E00E9461070895CF9302
:10050000DF93EC01423018F08F8588608F874B8B2A
:100510001C8A222329F0413019F48F8584608F874B
:1005200080E593EC0E9461078C8160E00E94CF0817
:100530008E8160E00E94CF088D818F3F19F060E0CE
:100540000E94CF086F8564FD1DC0CE0163E00E944C
:10055000040284E991E10E946107CE0163E00E94F8
:10056000040284E991E10E946107CE0163E00E94E8
:10057000040286E990E00E946107CE0162E00E94D9
:10058000040216C06062CE010E94690284E991E112
:100590000E9461076F856062CE010E94690286E950
:1005A00090E00E9461076F856062CE010E9469023F
:1005B0006F856062CE010E94690284E0888BCE0163
:1005C0000E946D02CE010E94770282E0898BCE01EB
:1005D00066E00E946902DF91CF9108956F927F9249
:1005E0008F92AF92CF92EF920F931F93DF93CF939F
:1005F000CDB7DEB73C01162F842FF301448325834A
:100600000683E782C086A18682869D8593879E8524
:1006100094879F8595879889968761E00E949008C6
:10062000F30185818F3F19F061E00E949008F3018A
:10063000868161E00E949008112319F0F30117866A
:1006400003C080E1F3018787C30160E141E020E05E
:100650000E947F02CF91DF911F910F91EF90CF9079
:10066000AF908F907F906F9008958F92AF92CF92BE
:10067000EF920F931F93CF93DF93DC01362F542F0C
:10068000722F102FAE2C8C2C13961C921E92129748
:1006900085EB91E011969C938E9300D000D0EDB73E
:1006A000FEB73196CDB7DEB719821182128213825E
:1006B000CD0161E0432F2FEF052FE72EC12E0E94C1
:1006C000EE020F900F900F900F90DF91CF911F913E
:1006D0000F91EF90CF90AF908F900895FC01809193
:1006E0006C028C3090F482838F5F80936C02815017
:1006F00090E0FC01EE0FFF1FE80FF91FE359FD4FDB
:1007000088EB9BE09283818308958FEF8283089525
:100710001F920F920FB60F9211242F933F934F9376
:100720005F936F937F938F939F93AF93BF93EF9359
:10073000FF938091910287FF05C01092850010926F
:1007400084002BC020919102332727FD30958091A2
:100750006C0290E02817390704F5809191029927DF
:1007600087FD9095FC01EE0FFF1FE80FF91FE3597D
:10077000FD4F808186FF11C080919102992787FDEE
:100780009095FC01EE0FFF1FE80FF91FE359FD4F95
:1007900080818F7360E00E94CF08809191028F5F0B
:1007A0008093910220919102332727FD309580910B
:1007B0006C0290E0281739070CF04EC0809191022E
:1007C0008C300CF049C020918400309185008091DC
:1007D0009102992787FD9095FC01EE0FFF1FE80F0E
:1007E000F91FE359FD4F81819281280F391F309302
:1007F00089002093880080919102992787FD909528
:10080000FC01EE0FFF1FE80FF91FE359FD4F808138
:1008100086FF2BC080919102992787FD9095FC015E
:10082000EE0FFF1FE80FF91FE359FD4F80818F7313
:1008300061E00E94CF0819C080E49CE905C0809166
:10084000840090918500049690938900809388009D
:100850008FEF8093910209C0809184009091850070
:10086000049680549C4940F3EACFFF91EF91BF91E9
:10087000AF919F918F917F916F915F914F913F9138
:100880002F910F900FBE0F901F901895EF92FF922F
:100890000F931F93FC01162FF42EE22E008311827A
:1008A00080E090E0A0E0B0E082839383A483B583EE
:1008B00086839783A087B1878DEC9CECACECBDE37D
:1008C00082879387A487B58766877787408B518B0C
:1008D000228B338B862F61E00E9490088F2D61E080
:1008E0000E9490088E2D61E00E949008812F60E0A8
:1008F0000E94CF088F2D60E00E94CF088E2D60E00F
:100900000E94CF081F910F91FF90EF900895AF9232
:10091000BF92CF92EF920F93CF93DF93EC015B01E5
:100920008130910509F019C18FEF6F3F780709F009
:1009300014C180E090E0A8ECB2EC80932E03909379
:100940002F03A0933003B093310382E992E066E075
:1009500070E045E050E027E030E001E00E9446040E
:1009600086EA92E063E070E044E050E022E030E0AC
:100970000E9446048AEB92E00E946E038FEB92E0A5
:100980000E946E0384EC92E00E946E0389EC92E078
:100990006CE04BE025E004E053E0E52E32E0C32EAE
:1009A0000E9435038EED92E06EE070E00E94FE0042
:1009B0001092E3021092E202D093E502C093E402A7
:1009C0001092E7021092E602D093E902C093E80287
:1009D00025E02093EA02B0920A03A09209038DE277
:1009E00092EBA6E6B1E48093EB029093EC02A09325
:1009F000ED02B093EE0284E299EBACEDBFE380939D
:100A0000EF029093F002A093F102B093F20280E023
:100A100090E0A0EAB1E48093F3029093F402A093F3
:100A2000F502B093F60284EB98ECA1E9B1E480936F
:100A3000F7029093F802A093F902B093FA0283E4CC
:100A40009CE1ADEAB0E48093FB029093FC02A0939A
:100A5000FD02B093FE0280E090E0ACE8B2E4809347
:100A6000FF0290930003A0930103B09302038EEF63
:100A700091E0909304038093030389EB90E09093BB
:100A800006038093050385E690E090930803809326
:100A90000703D0930C03C0930B0320930D03B09274
:100AA0002D03A0922C0386EE9FE3A8ECB0E4809384
:100AB0000E0390930F03A0931003B09311038FE2E2
:100AC0009DEDACEEBFE38093120390931303A093CC
:100AD0001403B093150380E090E0A0E2B1E48093AA
:100AE000160390931703A0931803B09319038AEA8F
:100AF00092E8ACE0B1E480931A0390931B03A093B7
:100B00001C03B0931D038AE191E5A2ECB0E480934D
:100B10001E0390931F03A0932003B093210380E052
:100B200090E0ACE0B2E48093220390932303A0937F
:100B30002403B093250383E092E0909327038093EE
:100B4000260387EA90E090932903809328038AE59F
:100B500090E090932B0380932A03DF91CF910F9124
:100B6000EF90CF90BF90AF90089580E090E06FEF4E
:100B70007FEF0E948704089581E090E06FEF7FEFA0
:100B80000E94870408958FE393E040E051EE60E017
:100B900070E00E94EE0980E00E940E080E94830D22
:100BA00086E060E070E00E94300883E060E070E082
:100BB0000E9430088FE090E09093BB028093BA02CD
:100BC00080E190E09093C0028093BF0281E190E0C9
:100BD0009093C5028093C4020895089580E090E048
:100BE000A8ECB2EC8093320390933303A0933403C8
:100BF000B093350308950F931F93182F062F61E0CC
:100C00000E949008812F602F0E94CF081F910F91A2
:100C100008956F927F928F929F92AF92BF92CF92E0
:100C2000DF92EF92FF920F931F930E94C3050F2E46
:100C3000F0E0AF2EF0E0BF2EF0E0CF2EF0E0DF2EA0
:100C4000F02D3501460181E00E940E08AA2797FD8C
:100C5000A095BA2FBC01CD010E94900E20E030E09B
:100C600048EC52E40E94440F20E030EC4FE754E49B
:100C70000E94F50D7B018C0120E030E040E851E45A
:100C80000E94400F18160CF0AEC0C601B50120E05E
:100C900030E040E85FE30E94F10D88230CF03FC094
:100CA000C601B50120E030E040E85FE30E948D0D11
:100CB0005B016C010E9453070E948E0E3B014C01A8
:100CC00088E061E00E94FB058FE393E060E071E063
:100CD0000E94700D8FE393E0B801A70122E030E09D
:100CE0000E945D0D8FE393E06CE171E00E94700D56
:100CF0008FE393E06BE371E00E94700D8FE393E06C
:100D000040E050E060E070E022E030E00E945D0DE5
:100D100068EE73E080E090E00E94A60764C0C60120
:100D2000B5010E945D0E6130710509F05CC08FE372
:100D300093E068E571E00E94700D8FE393E0B801E5
:100D4000A70122E030E00E945D0D0E9453077B0165
:100D50008C0188E060E00E94FB05C801B7010E9499
:100D60008E0EA40193010E948C0D7B018C018FE3F8
:100D700093E0B801A70122E030E00E945D0DC801B8
:100D8000B70120E030E04AE754E40E94F50D7B0112
:100D90008C0120E030E040E752E40E94400F8823BD
:100DA0009CF08FE393E065E771E00E94700DC8014D
:100DB000B70120E030E040E752E40E94F50DAB01BE
:100DC000BC018FE393E00AC08FE393E069E871E030
:100DD0000E94700D8FE393E0B801A70122E030E09C
:100DE0000E945D0D0BC0C601B50120E030E040E07F
:100DF00050E40E94F10D882309F025CF1F910F9137
:100E0000FF90EF90DF90CF90BF90AF909F908F902A
:100E10007F906F9008951F920F920FB60F9211243A
:100E20002F933F938F939F93AF93BF9380913A03F8
:100E300090913B03A0913C03B0913D0330913E0360
:100E40000196A11DB11D232F2D5F2D3720F02D57A9
:100E50000196A11DB11D20933E0380933A03909308
:100E60003B03A0933C03B0933D03809136039091E4
:100E70003703A0913803B09139030196A11DB11D2C
:100E80008093360390933703A0933803B0933903CC
:100E9000BF91AF919F918F913F912F910F900FBE76
:100EA0000F901F9018958FB7F89420913A033091C6
:100EB0003B0340913C0350913D038FBFB901CA01F0
:100EC0000895019739F0880F991F880F991F02978D
:100ED0000197F1F70895789484B5826084BD84B554
:100EE000816084BD85B5826085BD85B5816085BD25
:100EF000EEE6F0E0808181608083E1E8F0E010823E
:100F0000808182608083808181608083E0E8F0E07E
:100F1000808181608083E1EBF0E080818460808368
:100F2000E0EBF0E0808181608083EAE7F0E080819F
:100F300084608083808182608083808181608083FF
:100F40008081806880831092C1000895EF92FF92A3
:100F50000F931F93CF93DF937B018C013FB7F894DE
:100F60008091360390913703A0913803B0913903F3
:100F700026B5A89B05C02F3F19F00196A11DB11DF4
:100F80003FBFBA2FA92F982F8827820F911DA11D2F
:100F9000B11D52E0880F991FAA1FBB1F5A95D1F7A8
:100FA000EC0130C00E948B0D3FB7F894809136035E
:100FB00090913703A0913803B091390326B5A89BCF
:100FC00005C02F3F19F00196A11DB11D3FBFBA2FDB
:100FD000A92F982F8827820F911DA11DB11D32E0E6
:100FE000880F991FAA1FBB1F3A95D1F78C1B9D0B29
:100FF000885E9340B8F20894E108F10801091109EC
:10100000C851DC4FE114F1040105110559F6DF91D7
:10101000CF911F910F91FF90EF900895982F8E30F0
:1010200008F09E5097708091B0018295880F880FCC
:10103000807C892B80937C0080917A0080648093EF
:101040007A0080917A0086FDFCCF20917800409153
:101050007900942F80E030E0282B392BC9010895C6
:101060001F93CF93DF93182FEB0161E00E9490084C
:10107000209709F44AC0CF3FD10509F449C0E12FB8
:10108000F0E0E255FF4F84918330C1F0843028F4C2
:10109000813051F08230B1F50CC0863019F18730C3
:1010A00049F1843079F514C084B5806884BDC7BD2A
:1010B00033C084B5806284BDC8BD2EC080918000DD
:1010C000806880938000D0938900C093880024C0FA
:1010D00080918000806280938000D0938B00C093C9
:1010E0008A001AC08091B00080688093B000C093DD
:1010F000B30012C08091B00080628093B000C093B2
:10110000B4000AC0C038D1051CF4812F60E002C0D1
:10111000812F61E00E94CF08DF91CF911F91089548
:10112000CF93DF93482F50E0CA0186569F4FFC01B2
:1011300034914A575F4FFA018491882369F190E016
:10114000880F991FFC01E859FF4FA591B491FC014C
:10115000EE58FF4FC591D491662351F42FB7F89400
:101160008C91932F909589238C93888189230BC030
:10117000623061F42FB7F8948C91932F9095892366
:101180008C938881832B88832FBF06C09FB7F894E8
:101190008C91832B8C939FBFDF91CF910895482F23
:1011A00050E0CA0182559F4FFC012491CA01865626
:1011B0009F4FFC0194914A575F4FFA0134913323BA
:1011C00009F440C0222351F1233071F0243028F477
:1011D0002130A1F0223011F514C02630B1F02730B3
:1011E000C1F02430D9F404C0809180008F7703C00F
:1011F000809180008F7D8093800010C084B58F77B0
:1012000002C084B58F7D84BD09C08091B0008F7706
:1012100003C08091B0008F7D8093B000E32FF0E099
:10122000EE0FFF1FEE58FF4FA591B4912FB7F89422
:10123000662321F48C919095892302C08C91892B8F
:101240008C932FBF0895682F70E0CB0182559F4F7C
:10125000FC012491CB0186569F4FFC0144916A57B3
:101260007F4FFB019491992319F420E030E03CC0BA
:10127000222351F1233071F0243028F42130A1F0E1
:10128000223011F514C02630B1F02730C1F02430DF
:10129000D9F404C0809180008F7703C080918000D2
:1012A0008F7D8093800010C084B58F7702C084B595
:1012B0008F7D84BD09C08091B0008F7703C080917D
:1012C000B0008F7D8093B000892F90E0880F991F28
:1012D00084589F4FFC01A591B4918C9120E030E09F
:1012E000842311F021E030E0C901089508951F9290
:1012F0000F920FB60F9211242F933F934F938F931A
:101300009F93EF93FF938091C00082FD19C040919D
:10131000C60080915D03282F30E02F5F3F4F2F7371
:10132000307080915E0390E02817390759F0E09102
:101330005D03F0E0E15CFC4F42A320935D0302C03B
:101340008091C600FF91EF919F918F914F913F91B6
:101350002F910F900FBE0F901F90189580915D03F5
:1013600020915E0390E0805C9F4F821B91098F73F8
:101370009070892B11F00E94760908951F920F92A8
:101380000FB60F9211242F938F939F93EF93FF9398
:1013900090915F0380916003981731F48091C100B0
:1013A0008F7D8093C10010C0E0916003F0E0EF55A5
:1013B000FC4F20818091600390E001968F739070C4
:1013C000809360032093C600FF91EF919F918F91CE
:1013D0002F910F900FBE0F901F901895AF92BF9254
:1013E000DF92EF92FF920F931F93CF93DF93EC0165
:1013F0007A018B01DD24403081EE580780E06807D8
:1014000080E0780711F0DD24D39491E0A92EB12C6F
:10141000E889F989DD2069F0C5010C8C02C0880FCC
:10142000991F0A94E2F7808360E079E08DE390E011
:1014300005C0108260E874E88EE190E0A801970191
:101440000E94CA0F21503040404050405695479569
:101450003795279580E12030380720F0DD2011F006
:10146000DD24D6CFEC85FD853083EE85FF85208396
:101470001D8EEA89FB89408121E030E0C901088C9A
:1014800002C0880F991F0A94E2F7482B4083EA892B
:10149000FB894081C901098C02C0880F991F0A94F9
:1014A000E2F7482B4083EA89FB894081C9010A8C15
:1014B00002C0880F991F0A94E2F7482B4083EA89FB
:1014C000FB8980810B8C02C0220F331F0A94E2F744
:1014D000209528232083DF91CF911F910F91FF90BA
:1014E000EF90DF90BF90AF900895FC01268D878D1F
:1014F00030E0205C3F4F281B31092F733070C90149
:101500000895FC01968D878D981719F42FEF3FEF02
:1015100006C0878DE80FF11D82A1282F30E0C90198
:101520000895DC015E969C915E975F968C915F9723
:10153000981719F42FEF3FEF10C05F968C915F97CB
:10154000FD01E80FF11D92A15F968C915F978F5F6F
:101550008F735F968C93292F30E0C9010895DC01C9
:101560005D968C915D97882339F05096ED91FC91B2
:101570005197808186FFF9CF5D961C920895DC011A
:1015800090968C919097282F30E02F5F3F4F2F73CC
:10159000307091968C91919790E028173907C9F394
:1015A00090968C919097FD01E80FF11DEE59FF4F39
:1015B000608390962C9390975296ED91FC9153975F
:1015C000208181E090E05B960C905B9702C0880FD1
:1015D000991F0A94E2F7282B208381E05D968C9373
:1015E0005D975096ED91FC91519780818064808346
:1015F00081E090E00895109242031092410388EE3A
:1016000093E0A0E0B0E08093430390934403A09361
:101610004503B09346038DEB91E090934003809394
:101620003F03109260038091600380935F031092E8
:101630005E0380915E0380935D0385EC90E0909360
:101640004C0380934B0384EC90E090934E03809383
:101650004D0380EC90E09093500380934F0381EC16
:1016600090E0909352038093510382EC90E090932A
:1016700054038093530386EC90E090935603809339
:10168000550384E08093570383E08093580387E0F9
:101690008093590385E080935A0381E080935B0334
:1016A0000895CF93DF930E946B070E940906CEEA4C
:1016B000D9E00E94ED052097E1F30E94AE09F9CF31
:1016C000CF92DF92EF92FF920F931F93CF93DF930E
:1016D0007C016B018A01C0E0D0E00FC0D6016D91A2
:1016E0006D01D701ED91FC910190F081E02DC701D2
:1016F0000995C80FD91F015010400115110571F748
:10170000CE01DF91CF911F910F91FF90EF90DF906D
:10171000CF900895EF92FF920F931F938C01DC01FD
:10172000ED91FC910190F081E02D6DE009957C0137
:10173000D801ED91FC910190F081E02DC8016AE0A3
:1017400009959C012E0D3F1DC9011F910F91FF901E
:10175000EF900895CF93DF93EC016115710519F4B3
:1017600020E030E00FC0DB010D900020E9F7119779
:10177000A61BB70BE881F9810280F381E02DAD0152
:1017800009959C01C901DF91CF9108954F925F9215
:101790007F928F929F92AF92BF92CF92DF92EF9201
:1017A000FF920F931F93DF93CF93CDB7DEB7A1972F
:1017B0000FB6F894DEBF0FBECDBF2C01742ECB0147
:1017C000223008F42AE019A231E2C32ED12CCC0E2B
:1017D000DD1E822E9924AA24BB24672D752FA50116
:1017E00094010E94CA0F79018A01C801B701A501BD
:1017F00094010E94AB0F472D461B0894C108D108E5
:101800004A3014F4405D01C0495CF6014083E114A4
:10181000F1040105110521F07E2C5F2DC801DDCFFB
:10182000C201B6010E94AA0BA1960FB6F894DEBFC2
:101830000FBECDBFCF91DF911F910F91FF90EF9021
:10184000DF90CF90BF90AF909F908F907F905F90F0
:101850004F900895DC012115310541F4ED91FC9183
:101860000190F081E02D642F099508950E94C60B28
:101870000895CF92DF92EF92FF920F931F93CF9331
:10188000DF93EC016A017B012115310541F4E88108
:10189000F9810190F081E02D642F09951FC02A3055
:1018A0003105D1F477FF17C0E881F9810190F0810B
:1018B000E02D6DE209958C0144275527BA014C199A
:1018C0005D096E097F09CE012AE00E94C60B9801CE
:1018D000280F391F04C02AE00E94C60B9C01C901D1
:1018E000DF91CF911F910F91FF90EF90DF90CF90FC
:1018F00008957F928F929F92AF92BF92CF92DF9284
:10190000EF92FF920F931F93CF93DF934C017A01D5
:101910008B01722ECB01BA01A80197010E94A70F7B
:10192000882321F0C4016EE971E021C0C0E0D0E05D
:1019300057016801E894D7F8C601B5012FEF3FEFD2
:101940004FE75FE70E94A70F882351F4C601B50156
:101950002FEF3FEF4FE75FE70E94F10D181614F0ED
:10196000C1E0D0E0219739F0C40162EA71E00E9441
:10197000AA0BEC0193C0C801B7012FEF3FEF4FE76F
:101980005FE40E94400F181654F0C801B7012FEF12
:101990003FEF4FE75FEC0E94F10D882324F4C40170
:1019A00066EA71E0E4CFC801B70120E030E040E032
:1019B00050E00E94F10D87FD03C0C0E0D0E00EC0F2
:1019C000D401ED91FC910190F081E02DC4016DE214
:1019D0000995EC0117FB109517F9109520E030E000
:1019E00040E05FE3DD240BC0CA01B90120E030E034
:1019F00040E251E40E94F50D9B01AC01D394D71451
:101A000098F3C801B7010E948D0D5B016C010E9423
:101A1000620E7B018C01C401B801A7012AE030E00D
:101A20000E942A0CC80FD91F772039F0C4016AEA36
:101A300071E00E94AA0BC80FD91FC801B7010E940C
:101A40008E0E9B01AC01C601B5010E948C0D24C015
:101A500020E030E040E251E40E94440F7B018C0121
:101A60000E945D0E5B016C01CC24B7FCC094DC2CA1
:101A7000C401B601A5012AE030E00E94390CC80F6C
:101A8000D91FC601B5010E94900E9B01AC01C8018F
:101A9000B7010E948C0D7A947720D1F6CE01DF91A8
:101AA000CF911F910F91FF90EF90DF90CF90BF905B
:101AB000AF909F908F907F900895EF92FF920F9339
:101AC0001F937C010E94790C8C01C7010E948A0B34
:101AD000080F191FC8011F910F91FF90EF900895F3
:101AE000EF92FF920F931F937C010E94AA0B8C012F
:101AF000C7010E948A0B080F191FC8011F910F917F
:101B0000FF90EF900895009729F0BC0180E090E0ED
:101B10000E94E800089508955058BB27AA270ED0C8
:101B200075C166D130F06BD120F031F49F3F11F4D4
:101B30001EF45BC10EF4E095E7FB51C1E92F77D1AC
:101B400080F3BA17620773078407950718F071F4DA
:101B50009EF58FC10EF4E0950B2EBA2FA02D0B0130
:101B6000B90190010C01CA01A0011124FF27591BE2
:101B700099F0593F50F4503E68F11A16F040A22FE8
:101B8000232F342F4427585FF3CF46953795279559
:101B9000A795F0405395C9F77EF41F16BA0B620B58
:101BA000730B840BBAF09150A1F0FF0FBB1F661F9F
:101BB000771F881FC2F70EC0BA0F621F731F841FE2
:101BC00048F4879577956795B795F7959E3F08F008
:101BD000B3CF9395880F08F09927EE0F97958795C7
:101BE0000895D9D008F481E008950CD00FC107D131
:101BF00040F0FED030F021F45F3F19F0F0C05111F9
:101C000039C1F3C014D198F39923C9F35523B1F323
:101C1000951B550BBB27AA2762177307840738F05B
:101C20009F5F5F4F220F331F441FAA1FA9F333D0BA
:101C30000E2E3AF0E0E830D091505040E695001C6E
:101C4000CAF729D0FE2F27D0660F771F881FBB1F2A
:101C5000261737074807AB07B0E809F0BB0B802D04
:101C6000BF01FF2793585F4F2AF09E3F510568F050
:101C7000B6C000C15F3FECF3983EDCF386957795E4
:101C80006795B795F7959F5FC9F7880F911D969552
:101C9000879597F90895E1E0660F771F881FBB1FAE
:101CA000621773078407BA0720F0621B730B840B5B
:101CB000BA0BEE1F88F7E095089504D06894B1112F
:101CC000D9C00895BCD088F09F5790F0B92F9927BC
:101CD000B751A0F0D1F0660F771F881F991F1AF037
:101CE000BA95C9F712C0B13081F0C3D0B1E0089500
:101CF000C0C0672F782F8827B85F39F0B93FCCF381
:101D0000869577956795B395D9F73EF4909580952C
:101D1000709561957F4F8F4F9F4F0895E89409C04C
:101D200097FB3EF490958095709561957F4F8F4F0E
:101D30009F4F9923A9F0F92F96E9BB279395F69524
:101D4000879577956795B795F111F8CFFAF4BB0FA2
:101D500011F460FF1BC06F5F7F4F8F4F9F4F16C006
:101D6000882311F096E911C0772321F09EE8872F90
:101D7000762F05C0662371F096E8862F70E060E04C
:101D80002AF09A95660F771F881FDAF7880F9695C5
:101D9000879597F90895990F0008550FAA0BE0E869
:101DA000FEEF16161706E807F907C0F0121613061D
:101DB000E407F50798F0621B730B840B950B39F45D
:101DC0000A2661F0232B242B252B21F408950A26C3
:101DD00009F4A140A6958FEF811D811D089597F903
:101DE0009F6780E870E060E008959FEF80EC0895C1
:101DF00000240A94161617061806090608950024EA
:101E00000A9412161306140605060895092E039463
:101E1000000C11F4882352F0BB0F40F4BF2B11F4D7
:101E200060FF04C06F5F7F4F8F4F9F4F089557FD36
:101E30009058440F551F59F05F3F71F04795880F38
:101E400097FB991F61F09F3F79F0879508951216CF
:101E500013061406551FF2CF4695F1DF08C016167B
:101E600017061806991FF1CF86957105610508942C
:101E70000895E894BB2766277727CB0197F9089543
:101E80008ADF08F48FEF08950BD0C0CFB1DF28F0C0
:101E9000B6DF18F0952309F0A2CFA7CF1124EACF1F
:101EA000C6DFA0F3959FD1F3950F50E0551F629FB9
:101EB000F001729FBB27F00DB11D639FAA27F00DA3
:101EC000B11DAA1F649F6627B00DA11D661F829FCA
:101ED0002227B00DA11D621F739FB00DA11D621FAF
:101EE000839FA00D611D221F749F3327A00D611DCC
:101EF000231F849F600D211D822F762F6A2F1124AE
:101F00009F5750408AF0E1F088234AF0EE0FFF1F00
:101F1000BB1F661F771F881F91505040A9F79E3F37
:101F2000510570F05CCFA6CF5F3FECF3983EDCF339
:101F3000869577956795B795F795E7959F5FC1F774
:101F4000FE2B880F911D9695879597F9089523DFAD
:101F5000880B990B0895629FD001739FF001829FB7
:101F6000E00DF11D649FE00DF11D929FF00D839F28
:101F7000F00D749FF00D659FF00D9927729FB00DC5
:101F8000E11DF91F639FB00DE11DF91FBD01CF01D8
:101F900011240895A1E21A2EAA1BBB1BFD010DC03E
:101FA000AA1FBB1FEE1FFF1FA217B307E407F50709
:101FB00020F0A21BB30BE40BF50B661F771F881FE5
:101FC000991F1A9469F760957095809590959B017B
:101FD000AC01BD01CF01089597FB092E05260ED057
:101FE00057FD04D0D7DF0AD0001C38F45095409537
:101FF000309521953F4F4F4F5F4F0895F6F79095DD
:102000008095709561957F4F8F4F9F4F0895EE0F8C
:10201000FF1F0590F491E02D09942F923F924F926B
:102020005F926F927F928F929F92AF92BF92CF9268
:10203000DF92EF92FF920F931F93CF93DF93CDB771
:10204000DEB7CA1BDB0B0FB6F894DEBF0FBECDBFE9
:1020500009942A88398848885F846E847D848C84BA
:102060009B84AA84B984C884DF80EE80FD800C81C3
:102070001B81AA81B981CE0FD11D0FB6F894DEBFA6
:102080000FBECDBFED01089510E0CAECD0E004C052
:10209000FE010E9409102296CC3CD107C9F7F894A2
:0220A000FFCF70
:1020A2005072696D657261206C656374757261202E
:1020B20064656C2073656E736F723A006171756945
:1020C20020656C2073656E736F7220736520706F6C
:1020D2006E6520656E206365726F00746F64617651
:1020E20069612064656E74726F2064656C20707221
:1020F200696D65722069660073656E736F72206424
:10210200656E74726F2064656C20736567756E64AA
:102112006F2069660043616E74696461642064655E
:10212200204D696E75746F730043616E74696461EA
:102132006420646520736567756E646F73006E61F9
:102142006E00696E66006F7666002E000100000068
:1021520001000000006302600B00000000BF0A6083
:0A2162000B750A910A810AAF0A000A
:00000001FF
